:100000000C94B5000C9417010C94D2000C94D200FF
:100010000C94D2000C944A010C94D2000C94D2009F
:100020000C94D2000C94D2000C94D2000C94D20008
:100030000C94D2000C94D2000C94D4000C94D200F6
:100040000C94D2000C94D2000C9412030C94D200A5
:100050000C944A030C9492010C94D2000C94D2009C
:100060000C94D2000C94D2006E616E00696E660032
:1000700000407A10F35A00A0724E18090010A5D45F
:10008000E80000E87648170000E40B54020000CABC
:100090009A3B000000E1F505000080969800000002
:1000A00040420F000000A086010000001027000061
:1000B0000000E803000000006400000000000A00E7
:1000C000000000000100000000002C76D888DC67EA
:1000D0004F0823DFC1DFAE59E1B1B796E5E3E45342
:1000E000C63AE651997696E8E6C28426EB898C9B5F
:1000F00062ED407C6FFCEFBC9C9F40F2BAA56FA5FF
:10010000F490055A2AF75C936B6CF9676DC11BFC80
:10011000E0E40D47FEF520E6B500D0ED902E03009B
:10012000943577050080841E080000204E0A0000E8
:1001300000C80C333333330F986E12831141EF8DA7
:100140002114893BE65516CFFEE6DB18D1844B38E7
:100150001BF77C1D901DA4BBE424203284725E2218
:100160008100C9F124ECA1E53D2711241FBECFEF8A
:10017000D8E0DEBFCDBF12E0A0E0B1E0E6EBF5E1F4
:1001800002C005900D92A830B107D9F722E0A8E08F
:10019000B2E001C01D92AF3BB207E1F70E94CE036F
:1001A0000C94D90A0C9400001F920F920FB60F9274
:1001B00011242F933F934F935F936F937F938F936C
:1001C0009F93AF93BF93EF93FF9380911102909110
:1001D00012020196909312028093110280910F02F5
:1001E0009091100201969093100280930F0220913B
:1001F0000101309102018217930740F00E9423020F
:100200008F7085B91092100210920F02FF91EF913A
:10021000BF91AF919F918F917F916F915F914F911E
:100220003F912F910F900FBE0F901F9018951F9226
:100230000F920FB60F9211242F933F938F939F939A
:10024000809111029091120220910E02211110C092
:1002500021E020930E0290930D0280930C029F9157
:100260008F913F912F910F900FBE0F901F90189577
:1002700010920E0220910C0230910D02821B930B02
:1002800097FF03C091958195910990930201809306
:100290000101E5CF1F920F920FB60F9211248F9399
:1002A00081E080930B028F910F900FBE0F901F90F3
:1002B0001895882331F060910B02813021F060E0C5
:1002C00002C060930B02862F089580930B0208955D
:1002D00080910B02089589B1807C8093080281117E
:1002E0000FC080910902803499F480EA9FE0019761
:1002F000F1F780910A028F5F80930A020E940C033B
:10030000DA9A89B1807C8093090210920B020895D9
:100310008038B1F780E29EE40197F1F780910A02FC
:100320008150EACF1F920F920FB60F9211248F9334
:1003300081E0809300018F910F900FBE0F901F906E
:10034000189584B5826084BD85B5836085BD89EFCD
:1003500087BDEEE6F0E080818360808308958FE0C2
:1003600084B91AB88FEF8BB9089582E08093690041
:1003700081E08DBBE8E6F0E0808184608083EDE67B
:10038000F0E08081806C808378940895811102C0B0
:100390006F7065B90895813031F020F0823029F016
:1003A000833029F0089583B1089586B1089589B105
:1003B000089585E480937C008CEC80937A00089506
:1003C0001092000180917A00806480937A0080917D
:1003D00000018823E1F380917800909179000895DD
:1003E00030E020E040EA5FE0FA013197F1F72F5F5B
:1003F0003F4F82179307C0F70895382F562F822F4B
:10040000642F0E949F0891110BC0852F8150990B7A
:10041000BC0181E090E001C0880F6A95EAF73827B7
:10042000832F0895E1EBF2E081E0808382E0818315
:1004300083E0828384E0838385E0848387E085830F
:1004400088E0878308958091240291E08927809332
:100450002402882329F0809125028F5F8093250252
:1004600030912502209126026091B202832F0E94D2
:100470009F0881E0911101C083E028276091B302B9
:10048000832F0E949F08911102C084E02827609169
:10049000B402832F0E949F08911102C088E0282790
:1004A0006091B502832F0E949F08911102C080E1E4
:1004B00028276091B602832F0E949F08911102C0E5
:1004C00080E228276091B702832F0E949F08911134
:1004D00002C080E428276091B802832F0E949F0801
:1004E000911101C0205820932602822F0895982F41
:1004F00091701F929F9381FB992790F91F929F9370
:1005000082FB992790F91F929F9383FB992790F97B
:100510001F929F9384FB992790F91F929F9385FBCD
:10052000992790F91F929F9386FB222720F91F920B
:100530002F93881F8827881F1F928F9380E491E054
:100540009F938F9384E192E09F938F930E94580A28
:100550008DB79EB744960FB6F8949EBF0FBE8DBF61
:1005600084E192E00895893091055CF50197883027
:10057000910538F5FC01E154FD4F0C94CD08C702FC
:10058000D702E202E702EC02F102F602FB026093FC
:10059000B10277277F936F9382E591E09F938F93CA
:1005A0000E94420A0F900F900F900F900895609351
:1005B000B2028FE591E09F938F930E94420A0F90C1
:1005C0000F9008956093B30287E791E0F4CF6093B2
:1005D000B4028FE891E0EFCF6093B50287EA91E033
:1005E000EACF6093B6028FEB91E0E5CF6093B7025C
:1005F00087ED91E0E0CF6093B8028FEE91E0DBCF22
:10060000882331F060911302813021F060E002C054
:1006100060931302862F08958093130208958091AA
:10062000130208951F920F920FB60F9211248F9309
:100630009F93EF93FF93E0912902F0912A0280911A
:10064000C600E35DFD4F808380912B0290912C02C8
:10065000019690932C0280932B0280912902909115
:100660002A02019690932A028093290280912902FE
:1006700090912A028038910520F010922A0210925F
:100680002902FF91EF919F918F910F900FBE0F90D4
:100690001F9018951F920F920FB60F9211248F93EF
:1006A00081E0809305018F910F900FBE0F901F90F6
:1006B0001895A0E1442331F02091C00022602093DE
:1006C000C000A8E0B0E09B01AC010E94D3089B01F0
:1006D000AC0160E074E284EF90E00E94AB08BA01E4
:1006E000A9014150510961097109852F8F708093CB
:1006F000C5004093C40088ED8093C1000895909197
:1007000005019923E1F3109205018093C600089535
:100710000F931F93CF93DF93EC018C01060F171FEC
:10072000C017D10729F4DF91CF911F910F91089540
:1007300089910E947F03F4CFCF93DF93EC018991DD
:100740000E947F0388818111FACFDF91CF910C94B1
:100750007F0380912B0290912C0208952091270213
:1007600030912802F901E35DFD4F80812F5F3F4FFB
:10077000309328022093270240912B0250912C02A3
:100780004150510950932C0240932B0220383105DF
:1007900020F010922802109227020895CF93DF9341
:1007A000CDB7DEB7C055D1090FB6F894DEBF0FBE86
:1007B000CDBF80E1E0E3F1E0DE01AF5BBF4F019030
:1007C0000D928A95E1F7CE0101967C0180E4F70154
:1007D00011928A95E9F70E94AF010E94D9010E9407
:1007E000B5010E94A10140E060E875E280E090E080
:1007F0000E945903CE018F5B9F4F0E949C0310E023
:1008000000E080E4982E96E0C92E91E0D92E0E9457
:10081000AE030E94E0015C010E940F03F701992DD5
:1008200011929A95E9F7083EE3E01E0719F50E9438
:1008300077029F938F93B50190E080E00E94A40718
:1008400020E030E040EA5BE30E94E1079F938F9352
:100850007F936F93DF92CF92FF92EF920E94580A9C
:10086000C7010E949C030FB6F894DEBF0FBECDBF38
:1008700010E000E00E946801813011F40E946B01D9
:100880000F5F1F4FC4CFAFE0B0E0E9E4F4E00C9499
:10089000DE086C011B015A01FC011782168283815C
:1008A00081FF48C39E012F5F3F4F4901F6019381AD
:1008B000F10193FD859193FF81911F01882309F434
:1008C000E7C2853239F493FD859193FF81911F0131
:1008D000853239F4B60190E00E94120A35015301C5
:1008E000E5CFF12C512C00E0003238F48B3209F1C5
:1008F00090F48032F9F0833209F107FD34C020ED25
:10090000280F2A3020F506FF1BC0FAE0FF9E200DBD
:100910001124F22E05C08D3279F0803371F7016019
:10092000F10193FD859193FF81911F018111DCCF2E
:100930001AC002600460F4CF0860F2CF0061F0CF0B
:100940003AE0539E200D1124522E0062E9CF8E32E0
:1009500021F406FD9DC20064E3CF8C3611F40068DB
:10096000DFCF8836E9F29BEB980F933008F05FC039
:100970000061805E06FD02C046E0F42E102F1F735A
:10098000853609F05BC0106417FF61C08F2D9BE3B3
:100990009F1508F48BE344244394480E27E0350167
:1009A000F4E06F0E711CF501608171818281938189
:1009B000042DA4010E9424095C01F981FC87F0FF49
:1009C00003C00DE2F3FF07C00BE211FD04C0012FCD
:1009D000047012FD00E22C852C70E22E09F457C041
:1009E0000111ABC2F3E0E12CF515A0F483E0E52C96
:1009F000E81A13FD08C0B60180E290E00E94120AD6
:100A0000EA94E110F8CF002329F0B601802F90E09E
:100A10000E94120A3C8528E6A22E20E0B22E33FD69
:100A200004C09CE6A92E90E0B92E107122C09BE96B
:100A3000980F933008F033C10F7E9CCF863611F4A7
:100A40001068A2CFFF2009F49FCFFA949DCFE7E072
:100A50002F2DEF1518F427E037E0F32E412C9FCF10
:100A600011118052B60190E00E94120A8FEFA81A6D
:100A7000B80AF50184918111F3CFEE2009F42FCF4C
:100A8000B60180E290E00E94120AEA94F6CF17FFC6
:100A90006FC04A0CFC85F4FF04C08A81813309F4DD
:100AA0004A9414140CF086C028E0241510F488E051
:100AB000482E85E090E017FF06C0C501B7FE02C0D2
:100AC00090E080E0019601110196FF2031F02F2D7A
:100AD00030E02F5F3F4F820F931F5816190619F011
:100AE00014F0E52CE81A812F897011F4E11067C029
:100AF000002329F0B601802F90E00E94120A13FD16
:100B000002C0E11063C017FF7CC08501B7FE02C0C0
:100B100010E000E0C501841991092C016F2D70E0EF
:100B2000EE27FF27E61BF70BFF87EE870F3F100727
:100B300029F4B6018EE290E00E94120AA016B106D6
:100B40000CF44BC0401651060CF047C0F501E01BF9
:100B5000F10BE80DF91D8181015011092E853F85AA
:100B600002171307E4F1B60190E00E94120ADECFEB
:100B700016FD9FCFEF2DF0E0EA15FB0534F03CEFBA
:100B8000A3163FEFB3060CF010683296E80DF91D7E
:100B900001C0FA94FF2019F082918033D1F317FF3E
:100BA00088CF442443944F0CFA141B0431F02CF0EA
:100BB000FA187FCF442443947CCFF12C7ACFB6012E
:100BC00080E290E00E94120AEA9490CFB60180E39E
:100BD00090E00E94120AEA9494CF80E3BDCFA01661
:100BE000B10641F49A81963350F4953319F43C855B
:100BF00034FF05C0B60190E00E94120A3ECF81E3A7
:100C0000F9CF8A81813319F09C859F7E9C87B6013C
:100C100090E00E94120AFF20A9F0B6018EE290E057
:100C20000E94120AF394F394E2E001E00E0FE80D43
:100C3000F92DF11D8081B60190E00E94120AE02F8B
:100C40000F11F3CF85E690E014FF02C085E490E039
:100C5000B6010E94120AB7FC06C0A114B104C1F487
:100C6000EC85E4FF15C0B194A194B1088DE2B60102
:100C700090E00E94120A80E32AE0A216B10454F424
:100C8000B60190E00E94120AB601C501C096B4CF29
:100C90008BE2EDCF8F5FFAE0AF1AB108EDCF83366C
:100CA000C9F0833771F1833509F05BC03501F2E09B
:100CB0006F0E711CF501A080B1806F2D70E006FDF4
:100CC00002C06FEF7FEFC5010E94FC099D878C87F2
:100CD00000680DC0350132E0630E711CF5018081A2
:100CE000898321E030E03D872C8754010F7703FD95
:100CF00006C02C853D855216130609F0A8F4E52C94
:100D00002BC0350132E0630E711CF501A080B1806B
:100D10006F2D70E006FD02C06FEF7FEFC5010E94EE
:100D2000070A9D878C87E2CFB60180E290E00E949F
:100D3000120A5A94DECFF50107FD859107FF8191D4
:100D40005F01B60190E00E94120AE110EA948C85DE
:100D50009D8501979D878C87EC85FD85EF2B59F745
:100D60008CCE843619F0893609F074C0350107FF3E
:100D700066C0F4E06F0E711CF501608171818281A3
:100D80009381102F1F7697FF08C0909580957095DE
:100D900061957F4F8F4F9F4F10682AE030E0A4018C
:100DA0000E947B0AA82EA818BA2C012F16FF0AC091
:100DB0000E7FAF1438F414FF04C012FD02C0012FDF
:100DC0000E7EBF2C04FF8EC0FE01EA0DF11D808156
:100DD000803309F080C0097EF02FF870EF2E03FDFC
:100DE00090C000FF8AC0FA2CB51410F4F50CFB1863
:100DF00004FF8DC0B60180E390E00E94120A02FF5A
:100E000009C088E790E001FF02C088E590E0B601E4
:100E10000E94120AAF1408F486C0AA940A2D10E0AA
:100E20000F5F1F4F080D191DF80182918F01B60148
:100E300090E00E94120A80169106B1F71ECEF2E0F1
:100E40006F0E711CF50160817181072E000C880BFB
:100E5000990B97CF102F8537A9F41F7E2AE030E039
:100E6000350117FF2FC0F4E06F0E711CF501608192
:100E7000718182819381A4010E947B0AA82EA81807
:100E80001F7792CF197F8F36D1F048F4883591F0D3
:100E9000F601868197812F96E2E10C94FA0880375B
:100EA00039F08837A9F714FD146020E130E0D8CF7D
:100EB0001061F9CF04FD166020E132E0D1CF28E0C7
:100EC00030E0CECFF2E06F0E711CF50160817181D0
:100ED00090E080E0D0CF02FD02C0B3947DCFB39408
:100EE000B3947ACF802F867809F476CFF6CFB60107
:100EF00080E290E00E94120AB394B514C0F3E12C92
:100F000077CFE52CEB18B51408F472CFF8CF802F0B
:100F1000867809F47FCF8BE201FF80E207FD8DE246
:100F2000B60190E075CFB60180E390E00E94120A0E
:100F3000FA9470CF8FEF9FEFAECF24E0E12C251510
:100F400008F063CD84E053CDE89409C097FB3EF4EC
:100F500090958095709561957F4F8F4F9F4F992306
:100F6000A9F0F92F96E9BB279395F6958795779584
:100F70006795B795F111F8CFFAF4BB0F11F460FF44
:100F80001BC06F5F7F4F8F4F9F4F16C0882311F09C
:100F900096E911C0772321F09EE8872F762F05C0B0
:100FA000662371F096E8862F70E060E02AF09A954B
:100FB000660F771F881FDAF7880F9695879597F940
:100FC00008950E94F4070C9465080E94570838F0B1
:100FD0000E945E0820F0952311F00C944E080C94AA
:100FE000540811240C9499080E94760870F3959F78
:100FF000C1F3950F50E0551F629FF001729FBB2710
:10100000F00DB11D639FAA27F00DB11DAA1F649FAB
:101010006627B00DA11D661F829F2227B00DA11D5E
:10102000621F739FB00DA11D621F839FA00D611DE4
:10103000221F749F3327A00D611D231F849F600D05
:10104000211D822F762F6A2F11249F5750409AF02E
:10105000F1F088234AF0EE0FFF1FBB1F661F771FBA
:10106000881F91505040A9F79E3F510580F00C9485
:101070004E080C9499085F3FE4F3983ED4F38695AC
:1010800077956795B795F795E7959F5FC1F7FE2B25
:10109000880F911D9695879597F9089597F99F6701
:1010A00080E870E060E008959FEF80EC08950024F0
:1010B0000A941616170618060906089500240A94BD
:1010C00012161306140605060895092E0394000C43
:1010D00011F4882352F0BB0F40F4BF2B11F460FFD2
:1010E00004C06F5F7F4F8F4F9F4F089557FD9058FB
:1010F000440F551F59F05F3F71F04795880F97FBDC
:10110000991F61F09F3F79F0879508951216130695
:101110001406551FF2CF4695F1DF08C016161706C4
:101120001806991FF1CF86957105610508940895F9
:10113000E894BB2766277727CB0197F90895991B79
:1011400079E004C0991F961708F0961B881F7A95BE
:10115000C9F780950895A1E21A2EAA1BBB1BFD01B9
:101160000DC0AA1FBB1FEE1FFF1FA217B307E40786
:10117000F50720F0A21BB30BE40BF50B661F771FDE
:10118000881F991F1A9469F76095709580959095BE
:101190009B01AC01BD01CF010895EE0FFF1F05902B
:1011A000F491E02D09940E941509A59F900DB49F1C
:1011B000900DA49F800D911D112408952F923F92B0
:1011C0004F925F926F927F928F929F92AF92BF9257
:1011D000CF92DF92EF92FF920F931F93CF93DF9303
:1011E000CDB7DEB7CA1BDB0B0FB6F894DEBF0FBE60
:1011F000CDBF09942A88398848885F846E847D84AD
:101200008C849B84AA84B984C884DF80EE80FD80AE
:101210000C811B81AA81B981CE0FD11D0FB6F89424
:10122000DEBF0FBECDBFED010895A29FB001B39FF9
:10123000C001A39F700D811D1124911DB29F700DDF
:10124000811D1124911D0895283008F027E03327CF
:10125000DA01990F311D87FD9160009661057105D6
:1012600039F432602E5F3D9330E32A95E1F708951B
:101270009F3F30F080387105610509F03C5F3C5FAD
:101280003D93913008F08068911DDF93CF931F93B9
:101290000F93FF92EF92192F987F9695E92F9695CD
:1012A0009695E90FFF27E653FF4F99273327EE2442
:1012B000FF24A701E70105900894079428F4360F4E
:1012C000E71EF81E491F511D660F771F881F991FC3
:1012D0000694A1F70590079428F4E70EF81E491F1D
:1012E000561FC11D770F881F991F661F0694A1F70F
:1012F0000590079428F4F80E491F561FC71FD11DEB
:10130000880F991F661F771F0694A1F70590079411
:1013100020F4490F561FC71FD81F990F661F771F4C
:10132000881F0694A9F784911095177041F0D695FF
:10133000C79557954795F794E7941A95C1F7E0E755
:10134000F0E068941590159135916591959105900F
:101350007FE27395E118F10A430B560BC90BD009D4
:10136000C0F7E10CF11E431F561FC91FD01D7EF4AC
:10137000703311F48A95E6CFE894015030F0080FED
:101380000AF40027021708F4202F2395022F7A333E
:1013900028F079E37D932A95E9F710C07D932A958B
:1013A00089F6069497956795379517951794E118E0
:1013B000F10A430B560BC90BD00998F023957E9187
:1013C00073957A3308F070E37C932013B8F77E911D
:1013D00070617D9330F0839571E37D9370E32A957E
:1013E000E1F71124EF90FF900F911F91CF91DF91C2
:1013F000992787FD90950895FC01059061507040F4
:101400000110D8F7809590958E0F9F1F0895FC01CD
:101410006150704001900110D8F7809590958E0F23
:101420009F1F08950F931F93CF93DF93182F092FBA
:10143000EB018B8181FD09C01FEF0FEF812F902FF2
:10144000DF91CF911F910F91089582FF14C02E81DB
:101450003F818C819D81281739073CF4E881F9810F
:10146000CF0101969983888310838E819F81019695
:101470009F838E83E3CFE885F985812F0995892B9A
:10148000A1F3DACFB0E0A0E0E8E4FAE00C94EE08D3
:10149000AE014B5F5F4FFA0161917191AF01809195
:1014A000BB029091BC020E944304E2E00C940A0942
:1014B000AEE0B0E0EEE5FAE00C94EC080D891E8990
:1014C00086E08C831A8309838FEF9FE79E838D8349
:1014D000AE01475E5F4F6F89788DCE0101960E9405
:1014E00043042F813885020F131FF80110822E96B6
:1014F000E4E00C940809FA01AA27283051F12031C0
:1015000081F1E8946F936E7F6E5F7F4F8F4F9F4F97
:10151000AF4FB1E03ED0B4E03CD0670F781F891FD9
:101520009A1FA11D680F791F8A1F911DA11D6A0FA7
:10153000711D811D911DA11D20D009F468943F915A
:101540002AE0269F11243019305D3193DEF6CF0159
:101550000895462F4770405D4193B3E00FD0C9F71F
:10156000F6CF462F4F70405D4A3318F0495D31FD8C
:101570004052419302D0A9F7EACFB4E0A6959795DF
:10158000879577956795BA95C9F7009761057105B5
:1015900008959B01AC010A2E0694579547953795FF
:1015A0002795BA95C9F7620F731F841F951FA01D59
:0615B0000895F894FFCF3E
:1015B60001E8032602014144432072656164206903
:1015C600733A2025302E326620766F6C74732C2089
:1015D600436F756E7465722069733A2025730D002A
:1015E60050726F6772616D2053746172740A0D00D8
:1015F600256425642564256425642564256425649D
:101606000A006368616E20312069732025640063D7
:10161600617365203220686173206265656E20659E
:101626006E7465726564006361736520332068615A
:1016360073206265656E20656E746572656400630D
:10164600617365203420686173206265656E20656C
:101656006E74657265640063617365203520686128
:1016660073206265656E20656E74657265640063DD
:10167600617365203620686173206265656E20653A
:101686006E746572656400636173652037206861F6
:1016960073206265656E20656E74657265640063AD
:1016A600617365203820686173206265656E206508
:0816B6006E74657265640000AA
:00000001FF
